{
    "_format": "hh-sol-artifact-1",
    "contractName": "WavePortal",
    "sourceName": "contracts/WavePortal.sol",
    "abi": [
        {
            "inputs": [],
            "stateMutability": "payable",
            "type": "constructor"
        },
        {
            "anonymous": false,
            "inputs": [
                {
                    "indexed": true,
                    "internalType": "address",
                    "name": "from",
                    "type": "address"
                },
                {
                    "indexed": false,
                    "internalType": "uint256",
                    "name": "timestamp",
                    "type": "uint256"
                },
                {
                    "indexed": false,
                    "internalType": "string",
                    "name": "message",
                    "type": "string"
                }
            ],
            "name": "NewWave",
            "type": "event"
        },
        {
            "inputs": [],
            "name": "getAllWaves",
            "outputs": [
                {
                    "components": [
                        {
                            "internalType": "address",
                            "name": "waver",
                            "type": "address"
                        },
                        {
                            "internalType": "string",
                            "name": "message",
                            "type": "string"
                        },
                        {
                            "internalType": "uint256",
                            "name": "timestamp",
                            "type": "uint256"
                        }
                    ],
                    "internalType": "struct WavePortal.Wave[]",
                    "name": "",
                    "type": "tuple[]"
                }
            ],
            "stateMutability": "view",
            "type": "function"
        },
        {
            "inputs": [],
            "name": "getTotalWaves",
            "outputs": [
                {
                    "internalType": "uint256",
                    "name": "",
                    "type": "uint256"
                }
            ],
            "stateMutability": "view",
            "type": "function"
        },
        {
            "inputs": [
                {
                    "internalType": "address",
                    "name": "",
                    "type": "address"
                }
            ],
            "name": "lastWavedAt",
            "outputs": [
                {
                    "internalType": "uint256",
                    "name": "",
                    "type": "uint256"
                }
            ],
            "stateMutability": "view",
            "type": "function"
        },
        {
            "inputs": [
                {
                    "internalType": "string",
                    "name": "_message",
                    "type": "string"
                }
            ],
            "name": "wave",
            "outputs": [],
            "stateMutability": "nonpayable",
            "type": "function"
        },
        {
            "inputs": [
                {
                    "internalType": "uint256",
                    "name": "",
                    "type": "uint256"
                }
            ],
            "name": "waves",
            "outputs": [
                {
                    "internalType": "address",
                    "name": "waver",
                    "type": "address"
                },
                {
                    "internalType": "string",
                    "name": "message",
                    "type": "string"
                },
                {
                    "internalType": "uint256",
                    "name": "timestamp",
                    "type": "uint256"
                }
            ],
            "stateMutability": "view",
            "type": "function"
        }
    ],
    "bytecode": "0x608060405233600160006101000a81548173ffffffffffffffffffffffffffffffffffffffff021916908373ffffffffffffffffffffffffffffffffffffffff160217905550620000906040518060400160405280601981526020017f57652068617665206265656e20636f6e73747275637465642100000000000000815250620000b860201b620007a01760201c565b60644442620000a09190620001bd565b620000ac919062000227565b6002819055506200031d565b6200015881604051602401620000cf9190620002f9565b6040516020818303038152906040527f41304fac000000000000000000000000000000000000000000000000000000007bffffffffffffffffffffffffffffffffffffffffffffffffffffffff19166020820180517bffffffffffffffffffffffffffffffffffffffffffffffffffffffff83818316178352505050506200015b60201b60201c565b50565b60008151905060006a636f6e736f6c652e6c6f679050602083016000808483855afa5050505050565b6000819050919050565b7f4e487b7100000000000000000000000000000000000000000000000000000000600052601160045260246000fd5b6000620001ca8262000184565b9150620001d78362000184565b9250828201905080821115620001f257620001f16200018e565b5b92915050565b7f4e487b7100000000000000000000000000000000000000000000000000000000600052601260045260246000fd5b6000620002348262000184565b9150620002418362000184565b925082620002545762000253620001f8565b5b828206905092915050565b600081519050919050565b600082825260208201905092915050565b60005b838110156200029b5780820151818401526020810190506200027e565b60008484015250505050565b6000601f19601f8301169050919050565b6000620002c5826200025f565b620002d181856200026a565b9350620002e38185602086016200027b565b620002ee81620002a7565b840191505092915050565b60006020820190508181036000830152620003158184620002b8565b905092915050565b61151c806200032d6000396000f3fe608060405234801561001057600080fd5b50600436106100575760003560e01c8063449d46c01461005c5780639a2cdc0814610078578063a42a466314610096578063bd43a908146100c6578063c781267a146100e4575b600080fd5b61007660048036038101906100719190610af4565b610116565b005b61008061050a565b60405161008d9190610b56565b60405180910390f35b6100b060048036038101906100ab9190610bcf565b610555565b6040516100bd9190610b56565b60405180910390f35b6100ce61056d565b6040516100db9190610dab565b60405180910390f35b6100fe60048036038101906100f99190610df9565b6106be565b60405161010d93929190610e7f565b60405180910390f35b42610384600460003373ffffffffffffffffffffffffffffffffffffffff1673ffffffffffffffffffffffffffffffffffffffff168152602001908152602001600020546101649190610eec565b106101a4576040517f08c379a000000000000000000000000000000000000000000000000000000000815260040161019b90610f6c565b60405180910390fd5b42600460003373ffffffffffffffffffffffffffffffffffffffff1673ffffffffffffffffffffffffffffffffffffffff1681526020019081526020016000208190555060016000808282546101fa9190610eec565b925050819055506102406040518060400160405280600d81526020017f257320686173207761766564210000000000000000000000000000000000000081525033610839565b600360405180606001604052803373ffffffffffffffffffffffffffffffffffffffff16815260200183815260200142815250908060018154018082558091505060019003906000526020600020906003020160009091909190915060008201518160000160006101000a81548173ffffffffffffffffffffffffffffffffffffffff021916908373ffffffffffffffffffffffffffffffffffffffff16021790555060208201518160010190816102f89190611198565b50604082015181600201555050606460025442446103169190610eec565b6103209190610eec565b61032a9190611299565b6002819055506103716040518060400160405280601681526020017f52616e646f6d20232067656e6572617465643a202564000000000000000000008152506002546108d5565b6032600254116104b7576103ba6040518060400160405280600781526020017f257320776f6e210000000000000000000000000000000000000000000000000081525033610839565b6000655af3107a4000905047811115610408576040517f08c379a00000000000000000000000000000000000000000000000000000000081526004016103ff9061133c565b60405180910390fd5b60003373ffffffffffffffffffffffffffffffffffffffff168260405161042e9061138d565b60006040518083038185875af1925050503d806000811461046b576040519150601f19603f3d011682016040523d82523d6000602084013e610470565b606091505b50509050806104b4576040517f08c379a00000000000000000000000000000000000000000000000000000000081526004016104ab90611414565b60405180910390fd5b50505b3373ffffffffffffffffffffffffffffffffffffffff167f5f7e16dc676677766a70e9c5628aa6c54ddb8b6e5188e2ae1e1f17f1ffbea71642836040516104ff929190611434565b60405180910390a250565b600061054d6040518060400160405280601781526020017f5765206861766520256420746f74616c207761766573210000000000000000008152506000546108d5565b600054905090565b60046020528060005260406000206000915090505481565b60606003805480602002602001604051908101604052809291908181526020016000905b828210156106b557838290600052602060002090600302016040518060600160405290816000820160009054906101000a900473ffffffffffffffffffffffffffffffffffffffff1673ffffffffffffffffffffffffffffffffffffffff1673ffffffffffffffffffffffffffffffffffffffff16815260200160018201805461061a90610fbb565b80601f016020809104026020016040519081016040528092919081815260200182805461064690610fbb565b80156106935780601f1061066857610100808354040283529160200191610693565b820191906000526020600020905b81548152906001019060200180831161067657829003601f168201915b5050505050815260200160028201548152505081526020019060010190610591565b50505050905090565b600381815481106106ce57600080fd5b90600052602060002090600302016000915090508060000160009054906101000a900473ffffffffffffffffffffffffffffffffffffffff169080600101805461071790610fbb565b80601f016020809104026020016040519081016040528092919081815260200182805461074390610fbb565b80156107905780601f1061076557610100808354040283529160200191610790565b820191906000526020600020905b81548152906001019060200180831161077357829003601f168201915b5050505050908060020154905083565b610836816040516024016107b49190611464565b6040516020818303038152906040527f41304fac000000000000000000000000000000000000000000000000000000007bffffffffffffffffffffffffffffffffffffffffffffffffffffffff19166020820180517bffffffffffffffffffffffffffffffffffffffffffffffffffffffff8381831617835250505050610971565b50565b6108d1828260405160240161084f929190611486565b6040516020818303038152906040527f319af333000000000000000000000000000000000000000000000000000000007bffffffffffffffffffffffffffffffffffffffffffffffffffffffff19166020820180517bffffffffffffffffffffffffffffffffffffffffffffffffffffffff8381831617835250505050610971565b5050565b61096d82826040516024016108eb9291906114b6565b6040516020818303038152906040527fb60e72cc000000000000000000000000000000000000000000000000000000007bffffffffffffffffffffffffffffffffffffffffffffffffffffffff19166020820180517bffffffffffffffffffffffffffffffffffffffffffffffffffffffff8381831617835250505050610971565b5050565b60008151905060006a636f6e736f6c652e6c6f679050602083016000808483855afa5050505050565b6000604051905090565b600080fd5b600080fd5b600080fd5b600080fd5b6000601f19601f8301169050919050565b7f4e487b7100000000000000000000000000000000000000000000000000000000600052604160045260246000fd5b610a01826109b8565b810181811067ffffffffffffffff82111715610a2057610a1f6109c9565b5b80604052505050565b6000610a3361099a565b9050610a3f82826109f8565b919050565b600067ffffffffffffffff821115610a5f57610a5e6109c9565b5b610a68826109b8565b9050602081019050919050565b82818337600083830152505050565b6000610a97610a9284610a44565b610a29565b905082815260208101848484011115610ab357610ab26109b3565b5b610abe848285610a75565b509392505050565b600082601f830112610adb57610ada6109ae565b5b8135610aeb848260208601610a84565b91505092915050565b600060208284031215610b0a57610b096109a4565b5b600082013567ffffffffffffffff811115610b2857610b276109a9565b5b610b3484828501610ac6565b91505092915050565b6000819050919050565b610b5081610b3d565b82525050565b6000602082019050610b6b6000830184610b47565b92915050565b600073ffffffffffffffffffffffffffffffffffffffff82169050919050565b6000610b9c82610b71565b9050919050565b610bac81610b91565b8114610bb757600080fd5b50565b600081359050610bc981610ba3565b92915050565b600060208284031215610be557610be46109a4565b5b6000610bf384828501610bba565b91505092915050565b600081519050919050565b600082825260208201905092915050565b6000819050602082019050919050565b610c3181610b91565b82525050565b600081519050919050565b600082825260208201905092915050565b60005b83811015610c71578082015181840152602081019050610c56565b60008484015250505050565b6000610c8882610c37565b610c928185610c42565b9350610ca2818560208601610c53565b610cab816109b8565b840191505092915050565b610cbf81610b3d565b82525050565b6000606083016000830151610cdd6000860182610c28565b5060208301518482036020860152610cf58282610c7d565b9150506040830151610d0a6040860182610cb6565b508091505092915050565b6000610d218383610cc5565b905092915050565b6000602082019050919050565b6000610d4182610bfc565b610d4b8185610c07565b935083602082028501610d5d85610c18565b8060005b85811015610d995784840389528151610d7a8582610d15565b9450610d8583610d29565b925060208a01995050600181019050610d61565b50829750879550505050505092915050565b60006020820190508181036000830152610dc58184610d36565b905092915050565b610dd681610b3d565b8114610de157600080fd5b50565b600081359050610df381610dcd565b92915050565b600060208284031215610e0f57610e0e6109a4565b5b6000610e1d84828501610de4565b91505092915050565b610e2f81610b91565b82525050565b600082825260208201905092915050565b6000610e5182610c37565b610e5b8185610e35565b9350610e6b818560208601610c53565b610e74816109b8565b840191505092915050565b6000606082019050610e946000830186610e26565b8181036020830152610ea68185610e46565b9050610eb56040830184610b47565b949350505050565b7f4e487b7100000000000000000000000000000000000000000000000000000000600052601160045260246000fd5b6000610ef782610b3d565b9150610f0283610b3d565b9250828201905080821115610f1a57610f19610ebd565b5b92915050565b7f576169742031356d000000000000000000000000000000000000000000000000600082015250565b6000610f56600883610e35565b9150610f6182610f20565b602082019050919050565b60006020820190508181036000830152610f8581610f49565b9050919050565b7f4e487b7100000000000000000000000000000000000000000000000000000000600052602260045260246000fd5b60006002820490506001821680610fd357607f821691505b602082108103610fe657610fe5610f8c565b5b50919050565b60008190508160005260206000209050919050565b60006020601f8301049050919050565b600082821b905092915050565b60006008830261104e7fffffffffffffffffffffffffffffffffffffffffffffffffffffffffffffffff82611011565b6110588683611011565b95508019841693508086168417925050509392505050565b6000819050919050565b600061109561109061108b84610b3d565b611070565b610b3d565b9050919050565b6000819050919050565b6110af8361107a565b6110c36110bb8261109c565b84845461101e565b825550505050565b600090565b6110d86110cb565b6110e38184846110a6565b505050565b5b81811015611107576110fc6000826110d0565b6001810190506110e9565b5050565b601f82111561114c5761111d81610fec565b61112684611001565b81016020851015611135578190505b61114961114185611001565b8301826110e8565b50505b505050565b600082821c905092915050565b600061116f60001984600802611151565b1980831691505092915050565b6000611188838361115e565b9150826002028217905092915050565b6111a182610c37565b67ffffffffffffffff8111156111ba576111b96109c9565b5b6111c48254610fbb565b6111cf82828561110b565b600060209050601f83116001811461120257600084156111f0578287015190505b6111fa858261117c565b865550611262565b601f19841661121086610fec565b60005b8281101561123857848901518255600182019150602085019450602081019050611213565b868310156112555784890151611251601f89168261115e565b8355505b6001600288020188555050505b505050505050565b7f4e487b7100000000000000000000000000000000000000000000000000000000600052601260045260246000fd5b60006112a482610b3d565b91506112af83610b3d565b9250826112bf576112be61126a565b5b828206905092915050565b7f547279696e6720746f207769746864726177206d6f7265206d6f6e657920746860008201527f616e2074686520636f6e7472616374206861732e000000000000000000000000602082015250565b6000611326603483610e35565b9150611331826112ca565b604082019050919050565b6000602082019050818103600083015261135581611319565b9050919050565b600081905092915050565b50565b600061137760008361135c565b915061138282611367565b600082019050919050565b60006113988261136a565b9150819050919050565b7f4661696c656420746f207769746864726177206d6f6e65792066726f6d20636f60008201527f6e74726163742e00000000000000000000000000000000000000000000000000602082015250565b60006113fe602783610e35565b9150611409826113a2565b604082019050919050565b6000602082019050818103600083015261142d816113f1565b9050919050565b60006040820190506114496000830185610b47565b818103602083015261145b8184610e46565b90509392505050565b6000602082019050818103600083015261147e8184610e46565b905092915050565b600060408201905081810360008301526114a08185610e46565b90506114af6020830184610e26565b9392505050565b600060408201905081810360008301526114d08185610e46565b90506114df6020830184610b47565b939250505056fea264697066735822122055801fd378cd9abf74c16ff7f6a2d57f4ea736f03bed9e19771476e8334c01fe64736f6c63430008110033",
    "linkReferences": {},
    "deployedLinkReferences": {}
}